{
  "contractName": "Vote",
  "abi": [
    {
      "inputs": [],
      "stateMutability": "nonpayable",
      "type": "constructor"
    },
    {
      "inputs": [
        {
          "internalType": "uint256",
          "name": "",
          "type": "uint256"
        }
      ],
      "name": "Candidate",
      "outputs": [
        {
          "internalType": "string",
          "name": "name",
          "type": "string"
        },
        {
          "internalType": "uint256",
          "name": "id",
          "type": "uint256"
        },
        {
          "internalType": "uint256",
          "name": "votes",
          "type": "uint256"
        }
      ],
      "stateMutability": "view",
      "type": "function",
      "constant": true
    },
    {
      "inputs": [
        {
          "internalType": "address",
          "name": "",
          "type": "address"
        }
      ],
      "name": "Voter",
      "outputs": [
        {
          "internalType": "address",
          "name": "account",
          "type": "address"
        },
        {
          "internalType": "uint256",
          "name": "number",
          "type": "uint256"
        },
        {
          "internalType": "bool",
          "name": "enq",
          "type": "bool"
        },
        {
          "internalType": "uint256",
          "name": "chk",
          "type": "uint256"
        }
      ],
      "stateMutability": "view",
      "type": "function",
      "constant": true
    },
    {
      "inputs": [
        {
          "internalType": "string",
          "name": "_name",
          "type": "string"
        }
      ],
      "name": "add_can",
      "outputs": [],
      "stateMutability": "nonpayable",
      "type": "function"
    },
    {
      "inputs": [
        {
          "internalType": "uint256",
          "name": "_id",
          "type": "uint256"
        }
      ],
      "name": "see_can",
      "outputs": [
        {
          "internalType": "string",
          "name": "",
          "type": "string"
        },
        {
          "internalType": "uint256",
          "name": "",
          "type": "uint256"
        },
        {
          "internalType": "uint256",
          "name": "",
          "type": "uint256"
        }
      ],
      "stateMutability": "view",
      "type": "function",
      "constant": true
    },
    {
      "inputs": [
        {
          "internalType": "address",
          "name": "_account",
          "type": "address"
        }
      ],
      "name": "add_voter",
      "outputs": [],
      "stateMutability": "nonpayable",
      "type": "function"
    },
    {
      "inputs": [
        {
          "internalType": "address",
          "name": "_add",
          "type": "address"
        }
      ],
      "name": "see_voter",
      "outputs": [
        {
          "components": [
            {
              "internalType": "address",
              "name": "account",
              "type": "address"
            },
            {
              "internalType": "uint256",
              "name": "number",
              "type": "uint256"
            },
            {
              "internalType": "bool",
              "name": "enq",
              "type": "bool"
            },
            {
              "internalType": "uint256",
              "name": "chk",
              "type": "uint256"
            }
          ],
          "internalType": "struct Vote.voter",
          "name": "",
          "type": "tuple"
        }
      ],
      "stateMutability": "view",
      "type": "function",
      "constant": true
    },
    {
      "inputs": [
        {
          "internalType": "address",
          "name": "_acc",
          "type": "address"
        },
        {
          "internalType": "uint256",
          "name": "_id",
          "type": "uint256"
        }
      ],
      "name": "voting_candidate",
      "outputs": [],
      "stateMutability": "nonpayable",
      "type": "function"
    },
    {
      "inputs": [],
      "name": "vote_counter",
      "outputs": [
        {
          "internalType": "uint256",
          "name": "",
          "type": "uint256"
        }
      ],
      "stateMutability": "nonpayable",
      "type": "function"
    },
    {
      "inputs": [],
      "name": "winner",
      "outputs": [
        {
          "components": [
            {
              "internalType": "string",
              "name": "name",
              "type": "string"
            },
            {
              "internalType": "uint256",
              "name": "id",
              "type": "uint256"
            },
            {
              "internalType": "uint256",
              "name": "votes",
              "type": "uint256"
            }
          ],
          "internalType": "struct Vote.candidate",
          "name": "",
          "type": "tuple"
        }
      ],
      "stateMutability": "view",
      "type": "function",
      "constant": true
    }
  ],
  "bytecode": "0x60806040526000600355600060045560006005556001600060055481526020019081526020016000206002015460075534801561003b57600080fd5b50336000806101000a81548173ffffffffffffffffffffffffffffffffffffffff021916908373ffffffffffffffffffffffffffffffffffffffff16021790555061123d8061008b6000396000f3fe608060405234801561001057600080fd5b50600436106100935760003560e01c8063cab1e24411610066578063cab1e24414610135578063d459ff0014610153578063dc105a0a1461016f578063dfbf53ae1461019f578063e2f11b9c146101bd57610093565b80630c1b36e9146100985780631949685a146100cb578063263a2c86146100e75780635584b22114610103575b600080fd5b6100b260048036038101906100ad9190610c17565b6101ef565b6040516100c29493929190610c87565b60405180910390f35b6100e560048036038101906100e09190610c17565b61024c565b005b61010160048036038101906100fc9190610cf8565b6104d3565b005b61011d60048036038101906101189190610d38565b61061c565b60405161012c93929190610dfe565b60405180910390f35b61013d6106fe565b60405161014a9190610e3c565b60405180910390f35b61016d60048036038101906101689190610f8c565b610764565b005b61018960048036038101906101849190610c17565b61083e565b6040516101969190611057565b60405180910390f35b6101a761091c565b6040516101b4919061110c565b60405180910390f35b6101d760048036038101906101d29190610d38565b6109ef565b6040516101e693929190610dfe565b60405180910390f35b60026020528060005260406000206000915090508060000160009054906101000a900473ffffffffffffffffffffffffffffffffffffffff16908060010154908060020160009054906101000a900460ff16908060030154905084565b600060045411156103bd576000600260008373ffffffffffffffffffffffffffffffffffffffff1673ffffffffffffffffffffffffffffffffffffffff16815260200190815260200160002060030154146102a657600080fd5b600460008154809291906102b99061115d565b919050555060405180608001604052808273ffffffffffffffffffffffffffffffffffffffff16815260200160045481526020016000151581526020016001815250600260008373ffffffffffffffffffffffffffffffffffffffff1673ffffffffffffffffffffffffffffffffffffffff16815260200190815260200160002060008201518160000160006101000a81548173ffffffffffffffffffffffffffffffffffffffff021916908373ffffffffffffffffffffffffffffffffffffffff1602179055506020820151816001015560408201518160020160006101000a81548160ff021916908315150217905550606082015181600301559050506104d0565b600460008154809291906103d09061115d565b919050555060405180608001604052808273ffffffffffffffffffffffffffffffffffffffff16815260200160045481526020016000151581526020016001815250600260008373ffffffffffffffffffffffffffffffffffffffff1673ffffffffffffffffffffffffffffffffffffffff16815260200190815260200160002060008201518160000160006101000a81548173ffffffffffffffffffffffffffffffffffffffff021916908373ffffffffffffffffffffffffffffffffffffffff1602179055506020820151816001015560408201518160020160006101000a81548160ff021916908315150217905550606082015181600301559050505b50565b60001515600260008473ffffffffffffffffffffffffffffffffffffffff1673ffffffffffffffffffffffffffffffffffffffff16815260200190815260200160002060020160009054906101000a900460ff1615151461053357600080fd5b60035481111561054257600080fd5b6001600260008473ffffffffffffffffffffffffffffffffffffffff1673ffffffffffffffffffffffffffffffffffffffff168152602001908152602001600020600301541461059157600080fd5b6001600082815260200190815260200160002060020160008154809291906105b89061115d565b91905055506001600260008473ffffffffffffffffffffffffffffffffffffffff1673ffffffffffffffffffffffffffffffffffffffff16815260200190815260200160002060020160006101000a81548160ff0219169083151502179055505050565b60606000806001600085815260200190815260200160002060000160016000868152602001908152602001600020600101546001600087815260200190815260200160002060020154828054610671906111d5565b80601f016020809104026020016040519081016040528092919081815260200182805461069d906111d5565b80156106ea5780601f106106bf576101008083540402835291602001916106ea565b820191906000526020600020905b8154815290600101906020018083116106cd57829003601f168201915b505050505092509250925092509193909250565b6000806005819055505b6003546005541161075c5760016000600554815260200190815260200160002060020154600754111561073f576005546006819055505b600560008154809291906107529061115d565b9190505550610708565b600654905090565b3373ffffffffffffffffffffffffffffffffffffffff1660008054906101000a900473ffffffffffffffffffffffffffffffffffffffff1673ffffffffffffffffffffffffffffffffffffffff16146107bc57600080fd5b604051806060016040528082815260200160035481526020016000815250600160006003548152602001908152602001600020600082015181600001908051906020019061080b929190610aa1565b506020820151816001015560408201518160020155905050600360008154809291906108369061115d565b919050555050565b610846610b27565b600260008373ffffffffffffffffffffffffffffffffffffffff1673ffffffffffffffffffffffffffffffffffffffff1681526020019081526020016000206040518060800160405290816000820160009054906101000a900473ffffffffffffffffffffffffffffffffffffffff1673ffffffffffffffffffffffffffffffffffffffff1673ffffffffffffffffffffffffffffffffffffffff168152602001600182015481526020016002820160009054906101000a900460ff161515151581526020016003820154815250509050919050565b610924610b67565b600160006006548152602001908152602001600020604051806060016040529081600082018054610954906111d5565b80601f0160208091040260200160405190810160405280929190818152602001828054610980906111d5565b80156109cd5780601f106109a2576101008083540402835291602001916109cd565b820191906000526020600020905b8154815290600101906020018083116109b057829003601f168201915b5050505050815260200160018201548152602001600282015481525050905090565b6001602052806000526040600020600091509050806000018054610a12906111d5565b80601f0160208091040260200160405190810160405280929190818152602001828054610a3e906111d5565b8015610a8b5780601f10610a6057610100808354040283529160200191610a8b565b820191906000526020600020905b815481529060010190602001808311610a6e57829003601f168201915b5050505050908060010154908060020154905083565b828054610aad906111d5565b90600052602060002090601f016020900481019282610acf5760008555610b16565b82601f10610ae857805160ff1916838001178555610b16565b82800160010185558215610b16579182015b82811115610b15578251825591602001919060010190610afa565b5b509050610b239190610b88565b5090565b6040518060800160405280600073ffffffffffffffffffffffffffffffffffffffff16815260200160008152602001600015158152602001600081525090565b60405180606001604052806060815260200160008152602001600081525090565b5b80821115610ba1576000816000905550600101610b89565b5090565b6000604051905090565b600080fd5b600080fd5b600073ffffffffffffffffffffffffffffffffffffffff82169050919050565b6000610be482610bb9565b9050919050565b610bf481610bd9565b8114610bff57600080fd5b50565b600081359050610c1181610beb565b92915050565b600060208284031215610c2d57610c2c610baf565b5b6000610c3b84828501610c02565b91505092915050565b610c4d81610bd9565b82525050565b6000819050919050565b610c6681610c53565b82525050565b60008115159050919050565b610c8181610c6c565b82525050565b6000608082019050610c9c6000830187610c44565b610ca96020830186610c5d565b610cb66040830185610c78565b610cc36060830184610c5d565b95945050505050565b610cd581610c53565b8114610ce057600080fd5b50565b600081359050610cf281610ccc565b92915050565b60008060408385031215610d0f57610d0e610baf565b5b6000610d1d85828601610c02565b9250506020610d2e85828601610ce3565b9150509250929050565b600060208284031215610d4e57610d4d610baf565b5b6000610d5c84828501610ce3565b91505092915050565b600081519050919050565b600082825260208201905092915050565b60005b83811015610d9f578082015181840152602081019050610d84565b83811115610dae576000848401525b50505050565b6000601f19601f8301169050919050565b6000610dd082610d65565b610dda8185610d70565b9350610dea818560208601610d81565b610df381610db4565b840191505092915050565b60006060820190508181036000830152610e188186610dc5565b9050610e276020830185610c5d565b610e346040830184610c5d565b949350505050565b6000602082019050610e516000830184610c5d565b92915050565b600080fd5b600080fd5b7f4e487b7100000000000000000000000000000000000000000000000000000000600052604160045260246000fd5b610e9982610db4565b810181811067ffffffffffffffff82111715610eb857610eb7610e61565b5b80604052505050565b6000610ecb610ba5565b9050610ed78282610e90565b919050565b600067ffffffffffffffff821115610ef757610ef6610e61565b5b610f0082610db4565b9050602081019050919050565b82818337600083830152505050565b6000610f2f610f2a84610edc565b610ec1565b905082815260208101848484011115610f4b57610f4a610e5c565b5b610f56848285610f0d565b509392505050565b600082601f830112610f7357610f72610e57565b5b8135610f83848260208601610f1c565b91505092915050565b600060208284031215610fa257610fa1610baf565b5b600082013567ffffffffffffffff811115610fc057610fbf610bb4565b5b610fcc84828501610f5e565b91505092915050565b610fde81610bd9565b82525050565b610fed81610c53565b82525050565b610ffc81610c6c565b82525050565b6080820160008201516110186000850182610fd5565b50602082015161102b6020850182610fe4565b50604082015161103e6040850182610ff3565b5060608201516110516060850182610fe4565b50505050565b600060808201905061106c6000830184611002565b92915050565b600082825260208201905092915050565b600061108e82610d65565b6110988185611072565b93506110a8818560208601610d81565b6110b181610db4565b840191505092915050565b600060608301600083015184820360008601526110d98282611083565b91505060208301516110ee6020860182610fe4565b5060408301516111016040860182610fe4565b508091505092915050565b6000602082019050818103600083015261112681846110bc565b905092915050565b7f4e487b7100000000000000000000000000000000000000000000000000000000600052601160045260246000fd5b600061116882610c53565b91507fffffffffffffffffffffffffffffffffffffffffffffffffffffffffffffffff82141561119b5761119a61112e565b5b600182019050919050565b7f4e487b7100000000000000000000000000000000000000000000000000000000600052602260045260246000fd5b600060028204905060018216806111ed57607f821691505b60208210811415611201576112006111a6565b5b5091905056fea2646970667358221220800ab3741b72a3a02ed823687055d2afc207083aa4c6c51a5c589ef0515ab54d64736f6c634300080b0033",
  "immutableReferences": {},
  "source": "// SPDX-License-Identifier: MIT\npragma solidity ^0.8.11;\ncontract Vote{\n    address maker;\n    struct candidate{\n        string name;\n        uint id;\n        uint votes;\n    }\n    struct voter{\n        address account;//Account Number of the voter\n        uint number;//will count what is the sequential number of the perticular voter\n        bool enq;//Enquire if the voter has already voted so that he/she cannot vote multiple times\n        uint chk;//Will check if the voter is registaring (him/her)self twice or more and latter it will check if the voter is registered at all to vote\n    }\n    constructor(){\n        maker=msg.sender;\n    }\n    mapping(uint=>candidate) public Candidate;\n    mapping(address=>voter) public Voter;\n    //Function to add candidate\n    uint number=0;\n    function add_can(string memory _name) public {\n        require(maker==msg.sender);//Only the maker of the contract will be able to add Candidates\n        Candidate[number]=candidate(_name,number,0);\n        number++;\n    }\n    //Function to see a candidate\n    function see_can(uint _id) public view returns(string memory,uint,uint){\n        return (Candidate[_id].name,Candidate[_id].id,Candidate[_id].votes);\n    }\n    //Function to add voter\n    uint num=0;\n    function add_voter(address _account) public{\n        if(num>0){\n        require(Voter[_account].chk==0);//Checing if the voter has registered before\n        num++;\n        Voter[_account]=voter(_account,num,false,1);\n        }\n        else{\n        num++;\n        Voter[_account]=voter(_account,num,false,1);\n        }\n    }\n    //Function to view voter\n    function see_voter(address _add) public view returns(voter memory){\n        return Voter[_add];\n    }\n    //Function to vote\n    function voting_candidate(address _acc,uint _id) public{\n        require(Voter[_acc].enq==false);//This will confirm the voter votes only once\n        require(_id<=number);//This will check that the voter is not voting a real candidate\n        require(Voter[_acc].chk==1);//Check if the voter is at all registered\n        Candidate[_id].votes++;\n        Voter[_acc].enq=true;\n    }\n    //Function that will compare votes and determine the id of winner\n    uint k=0;\n    uint win_id;\n    uint xy=Candidate[k].votes;\n    function vote_counter() public returns(uint){\n        for(k=0;k<=number;k++){\n            if(xy>Candidate[k].votes){\n            win_id=k;\n            }\n        }\n        return win_id;\n    }\n    //View the winner\n    function winner() public view returns(candidate memory){\n        return Candidate[win_id];\n    }\n}",
  "sourcePath": "/home/hp/Desktop/Decentralized voting/contracts/deVoting.sol",
  "compiler": {
    "name": "solc",
    "version": "0.8.11+commit.d7f03943.Emscripten.clang"
  },
  "schemaVersion": "3.4.5",
  "updatedAt": "2022-02-24T07:42:46.780Z",
  "networkType": "ethereum",
  "devdoc": {
    "kind": "dev",
    "methods": {},
    "version": 1
  },
  "userdoc": {
    "kind": "user",
    "methods": {},
    "version": 1
  }
}